:020000040800F2
:1000000000500020F5AC0008D5AC0008D9AC0008C1
:10001000DDAC0008E1AC0008E5AC00080000000021
:10002000000000000000000000000000E9AC000833
:10003000EDAC000800000000F1AC000845AD000880
:1000400045AD000845AD000845AD000845AD0008C8
:1000500045AD000845AD000845AD000845AD0008B8
:1000600045AD000845AD000845AD000845AD0008A8
:1000700045AD000845AD000845AD000845AD000898
:1000800045AD000845AD000845AD000845AD000888
:1000900045AD000845AD000845AD00089D9A000833
:1000A00045AD000845AD000845AD000845AD000868
:1000B00095510008FD53000845AD000845AD000806
:1000C00045AD000845AD000845AD000845AD000848
:1000D00045AD0008B9A3000845AD000845AD0008CE
:1000E0009DA8000845AD000845AD000800000000CF
:1000F0000000000000000000000000000000000000
:0C01000000000000000000005FF808F1A3
:10011000044B05481B1A062B02D9044B03B11847A0
:10012000704700BF83000020800000200000000016
:1001300005490648091A891001EBD171491002D00E
:10014000034B03B118477047800000208000002057
:100150000000000010B5064C237843B9FFF7D8FF24
:10016000044B13B10448AFF300800123237010BD8A
:10017000800000200000000048AD000808B5084BD2
:100180001BB108490848AFF300800848036813B959
:10019000BDE80840CCE7064B002BF9D09847F7E7BD
:1001A000000000008400002048AD0008800000200E
:1001B0000000000070B50F4E0F4D761BB61018BF33
:1001C000002405D0013455F8043B9847A642F9D1E4
:1001D0000A4E0B4D0AF0B8FD761BB61018BF00246E
:1001E00006D0013455F8043B9847A642F9D170BDBA
:1001F00070BD00BF8CB300088CB3000890B300083A
:100200008CB30008032A70B422D940EA01039B078B
:1002100011D003780C78A3421DD10A44013105E0C6
:1002200010F8013F11F8014BA34214D19142F7D1CC
:10023000002070BC70470D6806680C46AE4203464D
:1002400001F1040100F1040008D1043A032AF2D8B4
:10025000002ADED1ECE7181B70BC70472146184617
:10026000D7E700BF70B4860746D0541E002A41D09D
:10027000CAB2034602E014F1FF343BD303F8012B6A
:100280009D07F8D1032C2ED9CDB245EA05250F2CB8
:1002900045EA054519D9264603F11002103E0F2EF6
:1002A00042F8105C42F80C5C42F8085C42F8045CCE
:1002B00002F11002F2D8A4F1100222F00F0204F0B1
:1002C0000F041032032C13440DD91E462246043A63
:1002D000032A46F8045BFAD8221F22F003020432F4
:1002E000134404F003042CB1C9B21C4403F8011BED
:1002F0009C42FBD170BC704714460346C2E700BF66
:100300002DE9F04120F00047FC0D7F3C162C0546FE
:1003100018DC002C80461DDB194F2741384223D0C2
:10032000184901F0B3FE002102F074F9E0B1002D8C
:1003300004DD4FF4000343FA04F4A04428EA070064
:10034000BDE8F081B7F1FF4F0ED3014601F09EFEEC
:10035000BDE8F0810B4901F099FE002102F05AF945
:1003600010B1002D07DB17B92846BDE8F0814FF02A
:100370007E50BDE8F0814FF00040BDE8F08100BF45
:10038000FFFF7F00CAF2497100B51C4A20F000430C
:10039000934283B018DDB3F1FF4F05DB014601F056
:1003A00073FE03B05DF804FB694600F0CFF900F07E
:1003B0000302012A15D0022A0CD0CAB101220199E8
:1003C000009800F0CDFFECE7002100F081FB03B0C6
:1003D0005DF804FB0199009800F07AFB00F1004001
:1003E000DFE70199009800F0BBFF00F10040D8E77B
:1003F0000199009800F06CFBD3E700BFD80F493F8C
:100400002DE9F04120F00047FC0D7F3C162C0546FD
:1004100013DC002C80461BDB194F2741384214D0D7
:10042000184901F033FE002102F0F4F868B1002D04
:100430001BDB28EA0700BDE8F081B7F1FF4F04D3CA
:10044000014601F023FEBDE8F0812846BDE8F081B9
:100450000C4901F01BFE002102F0DCF80028F4D06A
:10046000002D08DB0020BDE8F0814FF4000343FAC3
:1004700004F4A044DDE7002FE7D00348BDE8F08195
:10048000FFFF7F00CAF24971000080BFC0F3C7526E
:100490000028A2F17F0110B5B4BF4FF0FF34012452
:1004A0001E290DDC002918DBC0F31603162943F4BE
:1004B00000030ADD963A934003FB04F4204610BD86
:1004C00002F0C8F80446204610BD4FF480020A41ED
:1004D0001344C1F11701CB40EEE7013118BF0024EE
:1004E000204610BD00B51D4A20F00043934283B062
:1004F00019DDB3F1FF4F05DB014601F0C5FD03B087
:100500005DF804FB694600F021F900F003000128C2
:1005100018D002280ED0D0B10199009800F0D8FA76
:1005200000F10040EBE70022002100F019FF03B0CA
:100530005DF804FB01220199009800F011FF00F121
:100540000040DCE70199009800F0C2FAD7E70122E9
:100550000199009800F004FFD1E700BFD80F493F90
:10056000C0F3C7537F3B162B024605DC002B04DB90
:100570000348184122EA0000704700F0004070472D
:10058000FFFF7F0000F050B8F0B58BB0044600F0DC
:100590004BFA234B064693F900506B1C0AD02146B8
:1005A000204602F041F8074620B90021204602F01B
:1005B00013F810B930460BB0F0BD0122194B20469C
:1005C0008DE80C00089701F01DFA0022CDE9040126
:1005D000CDE902010023ADB11046194601F090FBB0
:1005E000022DCDE906010FD102F07AF82123036034
:1005F000089B7BB9DDE9060101F0F2FC06463046B6
:100600000BB0F0BDCDE90623684600F01FFF0028BF
:10061000EED1E9E702F064F8089B0360EAE700BF67
:100620006400002084B30008F8B50C4621F00041B6
:10063000B1F1FF4F034614DC20F00046B6F1FF4F46
:1006400007460EDCB4F17E5F3DD0A51705F002052C
:1006500045EAD07556B9022D30D0032D30D132483D
:10066000F8BD1946204601F011FDF8BD01B3B1F106
:10067000FF4F2CD0B6F1FF4F1AD0711AC9153C2983
:100680001ADC002C39DB2146184601F0BBFE00F0D5
:10069000F3FF00F0DDFE012D2CD0022D22D0002D25
:1006A0002FD0224901F0F2FC214901F0EDFCF8BD08
:1006B000002F06DB1F48F8BD1E48ECE71C48F8BDBC
:1006C000F8BD1D48F8BDBDE8F84000F0C1BEB6F168
:1006D000FF4F17D0022DF1D0032DC0D0012D19D01E
:1006E0000020F8BD114901F0D1FC0146104801F08D
:1006F000CBFCF8BD00F10040F8BD3C31C3DA00206E
:10070000C9E7F8BD022D0CD0032D08D0012D04D06F
:100710000A48F8BD4FF00040F8BD0948F8BD094847
:10072000F8BD0948F8BD00BFDB0F49C02EBDBB3383
:10073000DB0F4940DB0FC93FDB0FC9BFDB0F493F70
:10074000DB0F49BFE4CB16C0E4CB16402DE9F04FD8
:10075000A84A20F00044944289B06EDDA64A0646BD
:1007600094420D461CDC0028A44940F3FA8001F0B5
:100770008BFCA34B24F00F049C4206466CD0A1498D
:1007800001F082FC01463046296001F07DFC9D4964
:1007900001F07AFC01276860384609B0BDE8F08FA7
:1007A000994A94426ADDB4F1FF4F4EDAE715863F6D
:1007B000A4EBC754204601F04DFF01F01BFD03469A
:1007C00020461946059301F05FFC4FF0874101F088
:1007D00065FD804601F03EFF01F00CFD04464046F9
:1007E0002146069401F050FC4FF0874101F056FD80
:1007F0000021079001F0E6FE002800F0C9802046A5
:10080000002101F0DFFE002814BF01230223022093
:100810007E493A468DE80300294605A800F01CFAF7
:10082000002E07460DDA95E80C0002F1004203F1B4
:10083000004347422A606B6003E000220027086003
:100840004A60384609B0BDE8F08F014601F01CFC53
:10085000002768602860F4E76D4901F015FC6D49D8
:10086000044601F011FC01462046296001F00CFC11
:10087000684901F009FC01276860E2E700F0FCFE2E
:100880006549804601F00AFD4FF07C5101F0FEFB06
:1008900001F0E0FE074601F0ADFC5849834601F047
:1008A000FDFC0146404601F0EFFB564981465846A3
:1008B00001F0F4FC1F2F8246014648461FDC574BCF
:1008C0007A1E53F8223024F0FF029A4217D001F02A
:1008D000DBFB8046C5F800804146484601F0D4FB6A
:1008E000514601F0D1FB002E6860AADA08F10048F9
:1008F00000F10040C5F8008068607F42A1E701F088
:10090000C3FBE215C0F3C753D31A082B8046E1DDC1
:100910003F495846039201F0C1FC804601464846D3
:1009200001F0B2FB01460446484601F0ADFB4146EA
:1009300001F0AAFB80463749584601F0AFFC41461A
:1009400001F0A2FB01468246204601F09DFB039A7E
:10095000C0F3C753D21A192A80462EDC2860A1465C
:10096000BAE701F093FB264B24F00F049C420646A5
:1009700010D0244901F08AFB01463046296001F07D
:1009800083FB204901F082FB4FF0FF37686058E796
:1009900003233CE71E4901F079FB1E49044601F0A0
:1009A00075FB01462046296001F06EFB194901F0F4
:1009B0006DFB4FF0FF37686043E71949584601F077
:1009C0006DFC01468046204601F05EFB01468146F3
:1009D000204601F059FB414601F056FB04461149FF
:1009E000584601F05BFC214601F04EFB8246014671
:1009F00048466CE7D80F493FE3CB1640800FC93F0C
:100A0000D00FC93F43443537800F4943E0AD00085C
:100A10000044353708A3852E84F9223F60AD0008D5
:100A200000A3852E32318D2420F00042B2F1FF4F19
:100A3000F8B504462FD26AB3002803463EDBB2F570
:100A4000000F4FEAE0502DD300267F38C2074FF049
:100A5000190431464FF08072C3F3160343F40003C8
:100A600048BF5B0047105B008D189D4202DC5B1B9A
:100A7000A9181644013C4FEA43034FEA5202F3D14E
:100A800013B1013626F00106701000F17C5000EB26
:100A9000C750F8BDF8BD014601F000FC214601F049
:100AA000F5FAF8BD14F4000201D00EE00A465B002E
:100AB0001C0202F10101F9D5801AC5E7014601F0D7
:100AC000E3FA014601F09EFCF8BD4FF0FF32F3E778
:100AD0002DE9F84320F00044B4F1485F06460F4684
:100AE00049DA01F0B7FD002800F09D80314630461C
:100AF00001F0D4FB05464E4901F0D0FB4D4901F011
:100B0000C5FA294601F0CAFB4B4901F0BDFA294656
:100B100001F0C4FB494901F0B9FA294601F0BEFBD6
:100B2000474901F0B1FA294601F0B8FB454901F007
:100B3000ADFA294601F0B2FB80464FF07C512846C1
:100B400001F0ACFB41460446284601F0A7FB3946BC
:100B50000546304601F0A2FB0146284601F094FA12
:100B60000146204601F090FA01464FF07E5001F018
:100B70008BFABDE8F883014601F090FB05462C494D
:100B800001F08CFB2B4901F081FA294601F086FB2C
:100B9000294901F079FA294601F080FB274901F043
:100BA00075FA294601F07AFB254901F06DFA2946CC
:100BB00001F074FB234901F069FA294601F06EFB4C
:100BC000214B80469C42B8DD204B9C4227DC04F13F
:100BD0007F4421464FF07E5001F056FA81464FF097
:100BE0007C51284601F05AFB214601F04DFA41465E
:100BF0000446284601F052FB39460546304601F0CE
:100C00004DFB0146284601F03FFA0146204601F01F
:100C10003BFA0146484601F037FABDE8F883DFF8B1
:100C200034900B4CDBE74FF07E50BDE8F88300BFFB
:100C30004ED747ADF6740F317CF29334010DD037A7
:100C4000610BB63AABAA2A3D9999993E0000483FFC
:100C50000000903E0000383F2DE9F04F1C46DDB00B
:100C60000791611E0191089366998C4B029053F88D
:100C700021300593D31E48BF131DDB1023EAE37315
:100C8000194609930133A2EBC3030493019A059B10
:100C90008E1A9C1817D43444002501341FAFDDF898
:100CA0009C8108E058F8260001F0A4FA0136A6421B
:100CB00047F8040F07D0002EF4DA28460136A64282
:100CC00047F8040FF7D1059B002B28DB4FF00009F4
:100CD000089B48AA9E00029B351F1D4420AB1E4462
:100CE000059B47AF02EB8308019B002BC0F2B78244
:100CF000B346CA46029B1C1F5BF8041D54F8040F40
:100D000001F0CCFA0146504601F0C0F9AC428246EF
:100D1000F2D147F804AF474506F10406E4D1059B3C
:100D20006FF040429B46D846134408999B000298B6
:100D30000A440DF1300A191F00EB820553440AEBF7
:100D400001020A920B934FEA88035CAA0393B8F15D
:100D5000000F134453F8509C22DD02EB8804543CEE
:100D60000BAE47AF4FF06E51484601F097FA01F0D5
:100D700071FC01F03FFA4FF08741834601F08EFA93
:100D80000146484601F080F901F064FC54F804196A
:100D900046F8040F584601F079F9BC428146E1D18A
:100DA000049E4846314600F06BFC4FF078510446F3
:100DB00001F074FAFFF724FB4FF0824101F06EFA64
:100DC0000146204601F060F9044601F043FC8146EB
:100DD000069001F00FFA0146204601F055F9002E69
:100DE000074640F3E48008F1FF315AF82140C6F18C
:100DF000080344FA03F202FA03F3E41A4AF8214022
:100E00004946C6F10703114406911C41002C5ADDE6
:100E1000069BB8F1000F03F10103069340F33A82F9
:100E2000DAF80060002E40F09382B8F1010F40F331
:100E300054825246012352F8046F002E00F049827A
:100E4000591CC6F5807688454AF8236014DD5AF8A7
:100E500021200233C2F1FF0298454AF821200BDD20
:100E6000039A0AEB8303524491461A68C2F1FF02C7
:100E700043F8042B4B45F8D1049B002B10DD049B59
:100E80000126012B40F00E8208F1FF325AF8223081
:100E900003F07F034AF822300EE200BFF8B00008EA
:100EA000022C10D139464FF07E5001F0EDF8074684
:100EB00004994FF07E5000F0E3FB0146384601F004
:100EC000E3F8022407460021384601F07BFB0028A6
:100ED00000F08380059B08F1FF37BB420FDC002246
:100EE00008F18043013B0B980AEB830353F8041984
:100EF000834242EA0102F9D1002A40F09D80059B1D
:100F0000013B5AF82330002B40F0F48101230A9A68
:100F100052F8041901330029FAD043441A460693C3
:100F200008F10103934237DC0899099A01EB08079D
:100F300020A901EB870706999E1801EB020906F12B
:100F40008046679A013E02EB860648AA02EB8308B8
:100F5000679B03EB8903039356F8040F01F04AF9EA
:100F6000019B47F8040B002B19DBBB464FF000092F
:100F7000029B1C1F5BF8041D54F8040F01F08EF94E
:100F80000146484601F082F8AC428146F2D1039B0B
:100F900048F8049B9E42DFD1DDF81880D3E64FF07D
:100FA0000009039B48F8049B9E42D5D1F4E705D184
:100FB00008F1FF335AF82340241227E74FF07C5101
:100FC00001F01EFB002840F0538104460021384602
:100FD00001F0F8FA00287FF47DAF049E3846714294
:100FE00000F04EFB4FF08741A146044601F008FB9C
:100FF000002800F08D814FF06E51204601F04EF92F
:1010000001F028FB01F0F6F84FF08741054601F0AA
:1010100045F90146204601F037F801F01BFB4AF87C
:101020002800284601F016FB334608F10107083373
:1010300004934AF8270012E0049A5AF82730083A35
:10104000A14604925BB907F18043013B0AEB83039D
:1010500053F80419013F083A0029F9D00492049981
:101060004FF07E5000F00CFB002F0446C0F25C8174
:101070004FF06E56BB0048A91A1D01EB03080193FF
:1010800002920AEB020B08F104055BF8040D01F073
:10109000B1F8214601F002F9314645F8040D204629
:1010A00001F0FCF8D3450446EFD10026B246DDF846
:1010B00014B0A8F104080397BBF1000FB8BF0025D6
:1010C00015DBA54E4746A5480025002403E05445FE
:1010D0000DDC56F8040F57F8041F01F0DFF8014645
:1010E000284600F0D3FF0134A3450546EFDA5CAB98
:1010F00003EB8A03A8F1040843F8A05C46AB434520
:101100000AF1010AD8D1669B039F032B5AD8DFE866
:1011100003F08E5F5F02002F40F30481019A5CA907
:101120008B1834AD53F8A06CAC1854F804AC3146AD
:10113000504600F0ABFF80460146504600F0A4FF49
:10114000314600F0A3FF206044F8048DA5424646D6
:10115000EBD1012F40F3E680019B5CAAEC182546F9
:10116000D31853F8A06C0DF1D40A55F8048C31460D
:10117000404600F08BFF07460146404600F084FFE2
:10118000314600F083FF286045F8047DAA453E46BD
:10119000EBD10020043436AD54F8041D00F076FF86
:1011A000A542F9D1B9F1000F00F0B980349A359B0E
:1011B00000F1004002F1004203F10043079CA060EF
:1011C00022606360069B03F007005DB0BDE8F08F0E
:1011D0000020019C34AD04342C4454F8041D00F06C
:1011E00055FFAC42F9D1B9F1000F00F08580079AA4
:1011F00000F1004301461360349800F045FF002FD2
:101200000BDD012434AD013455F8041F00F03EFF1E
:10121000A742F8DAB9F1000F01D000F10040079BB6
:101220005860069B03F007005DB0BDE8F08F029B9D
:1012300034AD2B4400201C4654F8041D00F026FF5A
:10124000A542F9D1B9F1000F01D000F10040079B90
:101250001860069B03F007005DB0BDE8F08FCA463A
:1012600047F804AF474506F104067FF43DAD56E567
:10127000069BB8F1000F03F101030693C8BF0224D7
:101280003FF7CEAD39464FF07E5000F0FDFE022410
:10129000074618E6049B002B22DD0026049B012B49
:1012A0003FF4F2AD022B07D108F1FF325AF8223099
:1012B00003F03F034AF82230022C7FF404AE394693
:1012C0004FF07E5000F0E0FE0746002E3FF4FBADED
:1012D000EEE5013398457FF4AEAD049B002BDDDCD9
:1012E000022C7FF4F0AD39464FF07E5000F0CCFE7A
:1012F0000746E8E5012310E6079B0146186034988D
:1013000000F0C2FE002F3FF77CAF079B586088E7D4
:10131000204601F09FF947464AF828009FE6349A94
:10132000359B4BE700203DE7669B032B3FF64AAF1A
:1013300001A252F823F000BF4D1300084913000822
:10134000491300082513000800204CE7002079E726
:101350000121002375E500BF04B100080000C93F6A
:101360002DE9F84320F00043B3F1485F04460F46EF
:10137000904603DA01F06EF9002858D02146204645
:1013800000F08CFF05460146204600F087FF294902
:101390000646284600F082FF274900F075FE2946E0
:1013A00000F07CFF254900F071FE294600F076FF31
:1013B000234900F069FE294600F070FF214900F042
:1013C00065FE8146B8F1000F22D04FF07C513846BF
:1013D00000F064FF49468046304600F05FFF01465A
:1013E000404600F051FE294600F058FF394600F013
:1013F0004BFE15490546304600F050FF0146284691
:1014000000F044FE0146204600F03EFEBDE8F883B1
:101410000146284600F042FF0B4900F035FE3146F8
:1014200000F03CFF214600F031FEBDE8F883204685
:10143000BDE8F883D3C92E2F342FD7321BEF3836AF
:10144000010D50398988083CABAA2A3E002070471C
:101450002DE9F04120F00045B5F1A14F04460646C4
:1014600008DBB5F1FF4F6FDC002840F3A0806F4828
:10147000BDE8F0816E4B9D4277DCB5F1445F68DBDF
:101480004FF0FF372146204600F008FF0146804616
:1014900000F004FF0546674900F000FF664900F0D0
:1014A000F5FD294600F0FAFE644900F0EFFD2946FB
:1014B00000F0F4FE624900F0E9FD294600F0EEFE7E
:1014C000604900F0E3FD294600F0E8FE5E4900F0C7
:1014D000DDFD414600F0E2FE5C498046284600F012
:1014E000DDFE5B4900F0D0FD294600F0D7FE5949EA
:1014F00000F0CAFD294600F0D1FE574900F0C4FDB6
:10150000294600F0CBFE554900F0BEFD294600F00B
:10151000C5FE7B1C014640464CD0514D00F0B6FD47
:10152000214600F0BBFE05EB8703196900F0ACFD16
:10153000214600F0A9FD014655F8270000F0A4FD62
:10154000002E30DBBDE8F081014600F09FFDBDE8D4
:10155000F081444900F09AFD4FF07E5101F05AF8B5
:1015600000288DD02046BDE8F08100F085F83E4B84
:1015700004469D4229DCA3F5D0039D4244DC01468C
:1015800000F084FD4FF07E5100F07EFD4FF0804171
:101590000546204600F07AFD0146284600F032FF5D
:1015A000002704466EE700F10040BDE8F0812F48B7
:1015B000BDE8F08100F06AFD214600F06FFE0146B3
:1015C000204600F061FDBDE8F081294B9D4214DC0E
:1015D0004FF07F5100F058FD4FF07F5105462046F7
:1015E00000F05CFE4FF07E5100F050FD01462846B1
:1015F00000F008FF0227044644E701461D4800F0BA
:1016000001FF032704463DE74FF07E5100F03CFD0B
:101610004FF07E510546204600F038FD0146284631
:1016200000F0F0FE012704462CE700BFDB0FC93FA6
:10163000FFFFDF3ED769853C59DA4B3D356B883D6E
:101640006E2EBA3D2549123EABAAAA3E21A215BD77
:101650006BF16E3D95879D3D388EE33DCDCC4C3E84
:1016600030B10008CAF24971FFFF973FDB0FC9BFD5
:10167000FFFF1B40000080BF20F00040704700BF0C
:1016800030F0004238B5034616D0B2F1FF4F0FD20A
:10169000B2F5000F0D4610D30446D00D2844FE28A5
:1016A0002EDC00281DDD24F0FF4444EAC05038BD84
:1016B000014600F0EBFC38BD38BD4FF0984100F01A
:1016C000EDFD184A0346954207DB0446C0F3C750B8
:1016D0001938E3E7144800F02BF8134900F0DEFD59
:1016E00038BD10F1160F13DA4CF2503295421946FC
:1016F000F0DD0E4800F01CF80C4900F0CFFD38BDBD
:1017000019460A4800F014F8084900F0C7FD38BD32
:1017100024F0FF44193044EAC0504FF04C5100F01F
:10172000BDFD38BDB03CFFFF6042A20DCAF2497159
:1017300001F0004120F000400843704781F0004173
:1017400002E000BF83F0004330B54FEA41044FEAA6
:10175000430594EA050F08BF90EA020F1FBF54EA41
:10176000000C55EA020C7FEA645C7FEA655C00F0DD
:10177000E2804FEA5454D4EB5555B8BF6D420CDDAE
:101780002C4480EA020281EA030382EA000083EA31
:10179000010180EA020281EA0303362D88BF30BDD1
:1017A00011F0004F4FEA01314FF4801C4CEA113127
:1017B00002D0404261EB410113F0004F4FEA033386
:1017C0004CEA133302D0524263EB430394EA050F11
:1017D00000F0A780A4F10104D5F1200E0DDB02FA80
:1017E0000EFC22FA05F2801841F1000103FA0EF214
:1017F000801843FA05F359410EE0A5F120050EF1DA
:10180000200E012A03FA0EFC28BF4CF0020C43FA0A
:1018100005F3C01851EBE37101F0004507D54FF017
:10182000000EDCF1000C7EEB00006EEB0101B1F567
:10183000801F1BD3B1F5001F0CD349085FEA3000AD
:101840004FEA3C0C04F101044FEA445212F5800FB8
:1018500080F09A80BCF1004F08BF5FEA500C50F155
:10186000000041EB045141EA050130BD5FEA4C0C38
:10187000404141EB010111F4801FA4F10104E9D1C1
:1018800091F0000F04BF01460020B1FA81F308BFB8
:101890002033A3F10B03B3F120020CDA0C3208DD84
:1018A00002F1140CC2F10C0201FA0CF021FA02F15F
:1018B0000CE002F11402D8BFC2F1200C01FA02F1CF
:1018C00020FA0CFCDCBF41EA0C019040E41AA2BFF4
:1018D00001EB0451294330BD6FEA04041F3C1CDABC
:1018E0000C340EDC04F11404C4F1200220FA04F0DC
:1018F00001FA02F340EA030021FA04F345EA030186
:1019000030BDC4F10C04C4F1200220FA02F001FA47
:1019100004F340EA0300294630BD21FA04F02946C9
:1019200030BD94F0000F83F4801306BF81F4801162
:101930000134013D4EE77FEA645C18BF7FEA655CD5
:1019400029D094EA050F08BF90EA020F05D054EAA7
:10195000000C04BF1946104630BD91EA030F1EBFAC
:101960000021002030BD5FEA545C05D140004941B0
:1019700028BF41F0004130BD14F580043CBF01F5A3
:10198000801130BD01F0004545F0FE4141F4700189
:101990004FF0000030BD7FEA645C1ABF1946104664
:1019A0007FEA655C1CBF0B46024650EA013406BF65
:1019B00052EA033591EA030F41F4002130BD00BF24
:1019C00090F0000F04BF0021704730B54FF48064E1
:1019D00004F132044FF000054FF0000150E700BF62
:1019E00090F0000F04BF0021704730B54FF48064C1
:1019F00004F1320410F0004548BF40424FF00001AE
:101A00003EE700BF42004FEAE2014FEA31014FEAF0
:101A100002701FBF12F07F4393F07F4F81F060513F
:101A2000704792F0000F14BF93F07F4F704730B5AE
:101A30004FF4607401F0004521F0004120E700BF41
:101A400050EA010208BF704730B54FF000050AE0C8
:101A500050EA010208BF704730B511F0004502D5C9
:101A6000404261EB41014FF4806404F132045FEACB
:101A7000915C3FF4DCAE4FF003025FEADC0C18BF70
:101A800003325FEADC0C18BF033202EBDC02C2F166
:101A9000200300FA03FC20FA02F001FA03FE40EAF8
:101AA0000E0021FA02F11444C1E600BF70B54FF0F8
:101AB000FF0C4CF4E06C1CEA11541DBF1CEA1355DA
:101AC00094EA0C0F95EA0C0F00F0DEF82C4481EA42
:101AD000030621EA4C5123EA4C5350EA013518BF62
:101AE00052EA033541F4801143F4801338D0A0FB4F
:101AF00002CE4FF00005E1FB02E506F00042E0FBFC
:101B000003E54FF00006E1FB03569CF0000F18BF01
:101B10004EF0010EA4F1FF04B6F5007F64F54074A9
:101B200004D25FEA4E0E6D4146EB060642EAC6213C
:101B300041EA55514FEAC52040EA5E504FEACE2EA9
:101B4000B4F1FD0C88BFBCF5E06F1ED8BEF1004FAC
:101B500008BF5FEA500E50F1000041EB045170BD28
:101B600006F0004646EA010140EA020081EA03016C
:101B7000B4EB5C04C2BFD4EB0C0541EA045170BD68
:101B800041F480114FF0000E013C00F3AB8014F1E2
:101B9000360FDEBF002001F0004170BDC4F100042B
:101BA000203C35DA0C341BDC04F11404C4F12005AC
:101BB00000FA05F320FA04F001FA05F240EA020007
:101BC00001F0004221F0004110EBD37021FA04F63D
:101BD00042EB06015EEA430E08BF20EAD37070BDF7
:101BE000C4F10C04C4F1200500FA04F320FA05F056
:101BF00001FA04F240EA020001F0004110EBD37058
:101C000041F100015EEA430E08BF20EAD37070BDC7
:101C1000C4F1200500FA05F24EEA020E20FA04F3A0
:101C200001FA05F243EA020321FA04F001F000414F
:101C300021FA04F220EA020000EBD3705EEA430EC0
:101C400008BF20EAD37070BD94F0000F0FD101F0EF
:101C50000046400041EB010111F4801F08BF013C28
:101C6000F7D041EA060195F0000F18BF704703F066
:101C70000046520043EB030313F4801F08BF013DED
:101C8000F7D043EA0603704794EA0C0F0CEA1355A9
:101C900018BF95EA0C0F0CD050EA410618BF52EA63
:101CA0004306D1D181EA030101F000414FF0000069
:101CB00070BD50EA410606BF1046194652EA430677
:101CC00019D094EA0C0F02D150EA013613D195EAEB
:101CD0000C0F05D152EA03361CBF104619460AD133
:101CE00081EA030101F0004141F0FE4141F470013D
:101CF0004FF0000070BD41F0FE4141F4780170BD2D
:101D000070B54FF0FF0C4CF4E06C1CEA11541DBF91
:101D10001CEA135594EA0C0F95EA0C0F00F0A7F893
:101D2000A4EB050481EA030E52EA03354FEA0131C0
:101D300000F088804FEA03334FF0805545EA1313D3
:101D400043EA12634FEA022245EA111545EA10659B
:101D50004FEA00260EF000419D4208BF964244F132
:101D6000FD0404F5407402D25B084FEA3202B61A51
:101D700065EB03055B084FEA32024FF480104FF425
:101D8000002CB6EB020E75EB030E22BFB61A754699
:101D900040EA0C005B084FEA3202B6EB020E75EB2C
:101DA000030E22BFB61A754640EA5C005B084FEA94
:101DB0003202B6EB020E75EB030E22BFB61A754661
:101DC00040EA9C005B084FEA3202B6EB020E75EB6C
:101DD000030E22BFB61A754640EADC0055EA060E2D
:101DE00018D04FEA051545EA16754FEA06164FEA70
:101DF000C30343EA52734FEAC2025FEA1C1CC0D11C
:101E000011F4801F0BD141EA00014FF000004FF0A8
:101E1000004CB6E711F4801F04BF01430020B4F169
:101E2000FD0C88BFBCF5E06F3FF6AFAEB5EB030C21
:101E300004BFB6EB020C5FEA500C50F1000041EB1E
:101E4000045170BD0EF0004E4EEA113114EB5C04EB
:101E5000C2BFD4EB0C0541EA045170BD41F48011BE
:101E60004FF0000E013C90E645EA060E8DE60CEAC6
:101E7000135594EA0C0F08BF95EA0C0F3FF43BAFE3
:101E800094EA0C0F0AD150EA01347FF434AF95EA9A
:101E90000C0F7FF425AF104619462CE795EA0C0F7E
:101EA00006D152EA03353FF4FDAE1046194622E74B
:101EB00050EA410618BF52EA43067FF4C5AE50EA25
:101EC00041047FF40DAF52EA43057FF4EBAE12E715
:101ED0004FF0FF3C06E000BF4FF0010C02E000BFF6
:101EE0004FF0010C4DF804CD4FEA410C7FEA6C5CD9
:101EF0004FEA430C18BF7FEA6C5C1BD001B050EA7C
:101F0000410C0CBF52EA430C91EA030F02BF90EA66
:101F1000020F0020704710F1000F91EA030F58BF25
:101F2000994208BF90422CBFD8176FEAE37040F087
:101F3000010070474FEA410C7FEA6C5C02D150EA25
:101F4000013C07D14FEA430C7FEA6C5CD6D152EAE0
:101F5000033CD3D05DF8040B704700BF84461046A5
:101F600062468C461946634600E000BF01B5FFF7A4
:101F7000B7FF002848BF10F1000F01BD4DF808ED74
:101F8000FFF7F4FF0CBF012000205DF808FB00BF45
:101F90004DF808EDFFF7EAFF34BF012000205DF89F
:101FA00008FB00BF4DF808EDFFF7E0FF94BF0120EC
:101FB00000205DF808FB00BF4DF808EDFFF7CEFFED
:101FC00094BF012000205DF808FB00BF4DF808ED2C
:101FD000FFF7C4FF34BF012000205DF808FB00BFFD
:101FE0004FEA4102B2F1E04324BFB3F5001CDCF13B
:101FF000FE5C0DD901F0004C4FEAC0024CEA507073
:10200000B2F1004F40EB830008BF20F001007047A1
:1020100011F0804F21D113F13872BCBF01F00040A4
:10202000704741F480114FEA5252C2F11802C2F1D6
:10203000200C10FA0CF320FA02F018BF40F0010057
:102040004FEAC1234FEAD32303FA0CFC40EA0C0009
:1020500023FA02F34FEA4303CCE77FEA625307D146
:1020600050EA01331EBF4FF0FE4040F4400070477D
:1020700001F0004040F0FE4040F40000704700BF17
:1020800080F0004002E000BF81F0004142001FBF2D
:102090005FEA410392EA030F7FEA226C7FEA236C36
:1020A0006AD04FEA1262D2EB1363C1BFD21841402B
:1020B00048404140B8BF5B42192B88BF704710F0C1
:1020C000004F40F4000020F07F4018BF404211F064
:1020D000004F41F4000121F07F4118BF494292EACC
:1020E000030F3FD0A2F1010241FA03FC10EB0C00F8
:1020F000C3F1200301FA03F100F0004302D5494285
:1021000060EB4000B0F5000F13D3B0F1807F06D331
:1021100040084FEA310102F10102FE2A51D2B1F129
:10212000004F40EBC25008BF20F0010040EA03001E
:102130007047490040EB000010F4000FA2F10102CB
:10214000EDD1B0FA80FCACF1080CB2EB0C0200FA55
:102150000CF0AABF00EBC25052421843BCBFD040A3
:102160001843704792F0000F81F4000106BF80F41D
:1021700000000132013BB5E74FEA41037FEA226CE0
:1021800018BF7FEA236C21D092EA030F04D092F0AB
:10219000000F08BF0846704790EA010F1CBF0020DF
:1021A000704712F07F4F04D1400028BF40F000403C
:1021B000704712F100723CBF00F50000704700F05C
:1021C000004343F0FE4040F4000070477FEA226283
:1021D00016BF08467FEA23630146420206BF5FEA54
:1021E000412390EA010F40F4800070474FF0000354
:1021F00004E000BF10F0004348BF40425FEA000C1B
:1022000008BF704743F0964301464FF000001CE0C2
:1022100050EA010208BF70474FF000030AE000BF18
:1022200050EA010208BF704711F0004302D5404256
:1022300061EB41015FEA010C02BF844601460020C8
:1022400043F0B64308BFA3F18053A3F50003BCFAE3
:102250008CF2083AA3EBC25310DB01FA02FC634490
:1022600000FA02FCC2F12002BCF1004F20FA02F297
:1022700043EB020008BF20F00100704702F120028A
:1022800001FA02FCC2F1200250EA4C0021FA02F2EB
:1022900043EB020008BF20EADC7070474FF0FF0CF0
:1022A0001CEAD0521EBF1CEAD15392EA0C0F93EAEB
:1022B0000C0F6FD01A4480EA010C400218BF5FEA8D
:1022C00041211ED04FF0006343EA501043EA511100
:1022D000A0FB01310CF00040B1F5000F3EBF4900FA
:1022E00041EAD3715B0040EA010062F17F02FD2AFE
:1022F0001DD8B3F1004F40EBC25008BF20F00100E1
:10230000704790F0000F0CF0004C08BF49024CEAF7
:10231000502040EA51207F3AC2BFD2F1FF0340EA89
:10232000C250704740F400004FF00003013A5DDCFA
:1023300012F1190FDCBF00F000407047C2F100023B
:10234000410021FA02F1C2F1200200FA02FC5FEA28
:10235000310040F1000053EA4C0308BF20EADC7072
:10236000704792F0000F00F0004C02BF400010F4E4
:10237000000F013AF9D040EA0C0093F0000F01F091
:10238000004C02BF490011F4000F013BF9D041EAB3
:102390000C018FE70CEAD15392EA0C0F18BF93EAB5
:1023A0000C0F0AD030F0004C18BF31F0004CD8D1DF
:1023B00080EA010000F00040704790F0000F17BF66
:1023C00090F0004F084691F0000F91F0004F14D0AC
:1023D00092EA0C0F01D142020FD193EA0C0F03D104
:1023E0004B0218BF084608D180EA010000F0004007
:1023F00040F0FE4040F40000704740F0FE4040F4E2
:10240000400070474FF0FF0C1CEAD0521EBF1CEA80
:10241000D15392EA0C0F93EA0C0F69D0A2EB03029E
:1024200080EA010C49024FEA402037D04FF0805338
:1024300043EA111143EA10130CF000408B4238BFFD
:102440005B0042F17D024FF4000C8B4224BF5B1A0B
:1024500040EA0C00B3EB510F24BFA3EB510340EA59
:102460005C00B3EB910F24BFA3EB910340EA9C0007
:10247000B3EBD10F24BFA3EBD10340EADC001B0177
:1024800018BF5FEA1C1CE0D1FD2A3FF650AF8B421B
:1024900040EBC25008BF20F0010070470CF0004C28
:1024A0004CEA50207F32C2BFD2F1FF0340EAC25053
:1024B000704740F400004FF00003013A37E792F014
:1024C000000F00F0004C02BF400010F4000F013A72
:1024D000F9D040EA0C0093F0000F01F0004C02BF6D
:1024E000490011F4000F013BF9D041EA0C0195E7D6
:1024F0000CEAD15392EA0C0F08D142027FF47DAF6F
:1025000093EA0C0F7FF470AF084676E793EA0C0F5E
:1025100004D14B023FF44CAF08466EE730F0004C5C
:1025200018BF31F0004CCAD130F000427FF45CAFEC
:1025300031F000437FF43CAF5FE700BF4FF0FF3C5A
:1025400006E000BF4FF0010C02E000BF4FF0010CAD
:102550004DF804CD4FEA40024FEA41037FEA226C76
:1025600018BF7FEA236C11D001B052EA530C18BF98
:1025700090EA010F58BFB2EB030088BFC81738BFFD
:102580006FEAE17018BF40F0010070477FEA226CEB
:1025900002D15FEA402C05D17FEA236CE4D15FEAE7
:1025A000412CE1D05DF8040B704700BF844608461B
:1025B0006146FFE70FB5FFF7C9FF002848BF10F1DC
:1025C000000F0FBD4DF808EDFFF7F4FF0CBF012021
:1025D00000205DF808FB00BF4DF808EDFFF7EAFFAB
:1025E00034BF012000205DF808FB00BF4DF808ED66
:1025F000FFF7E0FF94BF012000205DF808FB00BF5B
:102600004DF808EDFFF7D2FF94BF012000205DF8E0
:1026100008FB00BF4DF808EDFFF7C8FF34BF0120ED
:1026200000205DF808FB00BF4FEA40024FEA41037B
:102630007FEA226C02D15FEA402C08D17FEA236C4A
:1026400002D15FEA412C02D14FF0000070474FF0F9
:10265000010070474FEA4002B2F1FE4F0FD34FF036
:102660009E03B3EB12620DD94FEA002343F00043FF
:1026700010F0004F23FA02F018BF404270474FF0AD
:102680000000704712F1610F01D1420205D110F034
:10269000004008BF6FF0004070474FF000007047E7
:1026A00042000ED2B2F1FE4F0BD34FF09E03B3EBBC
:1026B000126209D44FEA002343F0004323FA02F0E8
:1026C00070474FF00000704712F1610F01D14202D4
:1026D00002D14FF0FF3070474FF00000704700BF4D
:1026E000014B1868704700BF00000020034A1368C0
:1026F00023F0F80343EAC000106070470010024066
:10270000214A30B4536803F00C03042B06D0082B85
:1027100025D01BB11D4A1346026001E01B4B03602C
:10272000194A1B4C51681B4DC1F30311615CCB402E
:1027300043605168C1F30221615C23FA01F18160B9
:102740005168C1F3C221615CCB40C3605268C2F3DF
:102750008132AA5C30BCB3FBF2F30361704753686B
:102760005168C3F38343C90303F1020307D55268D9
:10277000920304D4054A02FB03F30360D0E7064A40
:1027800002FB03F30360CBE70010024000127A0063
:102790006C0000206800002000093D00044A936995
:1027A00019B923EA0000906170471843906170479F
:1027B00000100240024B0349034A59605A607047B7
:1027C0000020024023016745AB89EFCD3849CB6833
:1027D00013F0010FCB6803D15B0738D50220704797
:1027E000DB072CD44FF43023314AD168490705D593
:1027F0000220013B002B08BF05207047D268D2069B
:102800001AD4012B21D02A4A136943F00203136121
:102810005061136943F040031361D36813F0010F53
:10282000D36819D15B073BD5022041F6FD71204AE0
:1028300013690B40136170470320013BDAE71D4B1E
:10284000CA68D207D0D5013BFAD105207047CB68C2
:10285000D906D8D503207047D90709D4D3685B07B8
:10286000E2D4D36813F0100F14BF03200420DCE778
:10287000104BD168C90708D4D168013B490708D576
:102880000220002B08BF0520CFE7013BF1D1052036
:10289000CBE7D26812F0100F14BF03200420F0E73A
:1028A000D36813F0100F0CBF04200320BDE700BF56
:1028B00000200240FFFF0A0010B4394CE36813F017
:1028C000010FE36804D15B0738D5022010BC7047C4
:1028D000DB0729D44FF40053314AD468640705D587
:1028E0000220013B002B08BF0520EFE7D268D2068B
:1028F00017D4012B1FD02A4A136943F00103136137
:102900000180D36813F0010FD3681CD15B073FD55A
:10291000022041F6FE71224A10BC13690B4013617C
:1029200070470320013BDDE741F6FF73E268D20701
:10293000D2D5013BFAD1052010BC7047E368DC0614
:10294000D9D50320C2E7D90709D4D3685B07DFD400
:10295000D36813F0100F14BF03200420D9E741F609
:10296000FF73D168CC0708D4D168013B490708D56B
:102970000220002B08BF0520CBE7013BF1D1052049
:10298000C7E7D26812F0100F14BF03200420F0E74D
:10299000D36813F0100F0CBF04200320B9E700BF69
:1029A0000020024070B50D460446038ACA889BB2D7
:1029B00023F440531343898903828289AE8822F429
:1029C000B05323F00C031B0428891B0C6A89334382
:1029D000034313439BB2A381A38A86B09BB223F423
:1029E00040730B4301A8A382FFF78AFE04991A489B
:1029F000039BA289844208BF0B4612F4004F2A6849
:102A000003EB830314BF5200920003EB8303B3FB79
:102A1000F2F36422114DA189A5FB0360400902FB7A
:102A200010330A044FEA00100AD41B013233A5FB0D
:102A30000323C3F3431303439BB2238106B070BD4A
:102A4000D9003231A5FB0131C1F3421242EA000341
:102A50009BB2238106B070BD003801401F85EB5149
:102A6000838929B923F400531B041B0C838170470D
:102A70009BB243F400538381704700BF012310B41D
:102A800001F01F04C1F34211012903FA04F30FD02E
:102A900002290CBF103014302AB9026810BC22EA97
:102AA000030303607047026810BC13430360704760
:102AB0000C30F1E7C1F3080181807047274A038891
:102AC00090429BB212D002F5006290420ED0B0F15B
:102AD000804F0BD0A2F59832904207D002F5806269
:102AE000904203D002F58062904203D14A8823F0DD
:102AF000700313431A4A904227D002F58062904235
:102B000023D070B423F44073CE888D880C889BB298
:102B100002F58C32334390420380858504850ED0C4
:102B2000104B98420BD003F54063984207D003F551
:102B30008063984203D003F58063984201D10B7AF9
:102B40000386012370BC8382704703808B88838552
:102B50000B88038501238382704700BF002C01404E
:102B60000010004000340140028CF0B422F0010259
:102B70001204120C0D890284038C4E888488028B07
:102B800023F0020335431B0422F07302184E1B0C82
:102B900012040F882B43120CB0429BB2A4B242EA3B
:102BA000070215D0134DA84212D005F54065A84282
:102BB0000ED005F58065A8420AD005F58065A842CB
:102BC00006D0C98884800283F0BC81860384704764
:102BD0004E898D89CF8923F00803334324F4407450
:102BE0008E883D4323F004032C433343A4B2E8E72B
:102BF000002C01400034014000234FF6FF720360B7
:102C000042600372704700BF038829B923F00103B3
:102C10001B041B0C038070479BB243F0010303802D
:102C2000704700BFB0F8443021B9C3F30E03A0F8D9
:102C3000443070476FEA43436FEA53439BB2A0F8B6
:102C40004430704783899BB21AB923EA010181811C
:102C50007047194381817047038B23F008031B04DD
:102C60001B0C194301837047C94389B20182704725
:102C700040F0BF60024B40F40030D860704700BFA6
:102C800000ED00E0C3785BB90121037814485A09CC
:102C900003F01F03203201FA03F340F8223070479B
:102CA000104B0F21DA6870B4D24301248578437841
:102CB000C2F30222C2F1040621FA02F22A40B34012
:102CC00001781343064A1B0101F01F055018DBB2BF
:102CD000AC4080F80033490942F8214070BC70478D
:102CE00000E100E000ED00E0837933B330B4046824
:102CF0001B4BE1431D6802790D401D605D6802F1C8
:102D000080422940596002F58232156841792C438E
:102D1000146002689C68D04304409C60DC68102901
:102D200000EA0400D86013D030BC01F1804303F501
:102D3000823319680A431A6070470379016803F106
:102D4000804303F582331A6822EA01021A60704751
:102D5000996830BC11439960D9680A43DA607047BA
:102D600000040140054B1A685B69034004D002422D
:102D700014BF01200020704718467047000401402E
:102D8000014B5861704700BF0004014030B4CD785A
:102D9000EB0648BF8B7805F00F0448BF1C430B8837
:102DA00013F0FF0F32D0482D026800F08180282DEB
:102DB00000F0B680D90744BF22F00F0222439907E2
:102DC00044BF22F0F00242EA0412590744BF22F441
:102DD000706242EA0422190744BF22F4704242EAB8
:102DE0000432D90644BF22F4702242EA0442990612
:102DF00044BF22F4700242EA0452590644BF22F052
:102E0000706242EA0462190671D40260FF2B30D965
:102E1000282D42682FD0482D6CD0D90544BF22F010
:102E20000F0222439D0544BF22F0F00242EA041241
:102E3000590544BF22F4706242EA04221D0544BFD2
:102E400022F4704242EA0432D90444BF22F47022D0
:102E500042EA04429D0444BF22F4700242EA045252
:102E6000590444BF22F0706242EA04621D043BD45C
:102E7000426030BC7047D90500F1D6809D0500F155
:102E8000CB80590500F1C0801D0500F1B580D90443
:102E900000F1AA809D0400F19F80590400F1948004
:102EA0001B04E5D54FF4004364F31F724361DFE771
:102EB000D90700F1E380990700F1D980590700F1A3
:102EC000CF80190700F1C580D90600F1BB809906B3
:102ED00000F1B180590600F1D780190695D58021FF
:102EE00064F31F72016190E764F31F72C0E764F33B
:102EF0001F728AE7D90548D49D053ED4590534D4BC
:102F00001D052AD4D9044FD49D0445D4590453D463
:102F10001D04ADD54FF4004364F31F720361A7E7AE
:102F2000D90700F1E280990700F1D880590700F134
:102F3000CE80190700F1C480D90600F1BA80990645
:102F400000F1B080590600F1A68019067FF55DAF4B
:102F5000802164F31F72416157E74FF4006122F44E
:102F6000704242EA04320161CCE74FF4806122F4FE
:102F7000706242EA04220161C2E74FF4007122F05C
:102F8000F00242EA04120161B8E74FF4807122F0C6
:102F90000F0222430161AFE74FF4005122F47002A7
:102FA00042EA04520161B1E74FF4805122F47022E9
:102FB00042EA04420161A7E74FF4804122F07062C7
:102FC00042EA04620161A3E74FF4804122F070629B
:102FD00042EA0462416163E74FF4005122F4700257
:102FE00042EA0452416158E74FF4805122F47022C2
:102FF00042EA044241614DE74FF4006122F470421D
:1030000042EA0432416142E74FF4806122F4706287
:1030100042EA0422416137E74FF4007122F0F002E6
:1030200042EA041241612CE74FF4807122F00F0252
:103030002243416122E7202122F4700242EA045235
:10304000016147E7102122F4702242EA0442016143
:103050003DE7082122F4704242EA0432016133E77D
:10306000042122F4706242EA0422016129E702216C
:1030700022F0F00242EA041201611FE7012122F06E
:103080000F022243016116E7402122F0706242EAFA
:103090000462016121E7402122F0706242EA046289
:1030A000416152E7202122F4700242EA0452416158
:1030B00048E7102122F4702242EA044241613EE7CF
:1030C000082122F4704242EA0432416134E70421CB
:1030D00022F4706242EA042241612AE7022122F0CE
:1030E000F00242EA0412416120E7012122F00F02BE
:1030F0002243416117E700BF806880B2704700BF7C
:10310000C06880B2704700BF01617047416170477D
:103110000AB9416170470161704700BF0028194B2F
:1031200000F44012B4BFDB695B68B2F5401F30B4F5
:1031300084B21ED0C20213D50322C0F30345AA40B5
:1031400023EA020343F0706319B1420D1201944067
:1031500023430C4A0028B4BFD361536030BC70478E
:10316000420D120104FA02F223EA020343F07063F3
:10317000EAE7044D23F070636A6822F070626A60C7
:10318000E2E700BF0000014010B40F2401F0FC038F
:1031900003F1804303F5803301F003019A6889004D
:1031A0008C4022EA04029A609A6800FA01F1114305
:1031B000996010BC704700BF2DE9F04F704B83B091
:1031C0001B780193002B00F0C0805E1EF6B26D4BA1
:1031D00093F80090B14500F0B58034256A4C05FBAA
:1031E0000645E969AF690846FEF750FF296AFFF70F
:1031F00055F8054601463846FFF7EEF900B13D4661
:10320000342303FB06435D61002E00F0A080731E93
:103210005FFA83FBD94500F09F8034225D46174654
:1032200002FB064627E0DDB2584B07FB08481B7837
:10323000AB422DD0D8F818B0D8F814005946FFF793
:10324000C1F9A8B9D8F81C100846FEF71FFFD8F836
:103250002010FFF723F87169FEF718FF06460146B4
:103260005846FFF7D7F9002800F08380C8F81460AB
:103270004D45564612D06B1EA84607FB054A002D49
:10328000D1D12325414B07FB08481B78AB42D1D154
:1032900002F07CFA3B4B93F80090CBE7AB46384BFF
:1032A0001B7801934FF0340A364B0BF101020AFBF5
:1032B0000B4893F800B000235FFA82F9B9F1240FAC
:1032C00008BF4FF00009009337E00AFB0946D8F821
:1032D0001470756938462946FFF77EF9B0B1D8F801
:1032E0001C100846FEF7D2FED8F82010FEF7D6FFD5
:1032F0003946FEF7CBFE074601462846FFF78AF916
:1033000020B101233D46CB46009377610AFB094279
:1033100029469069FFF756F909F10102002818BF04
:10332000CB465FFA82F9009B18BF0123B9F1240F45
:10333000B04608BF4FF000090093019B9945C4D1E6
:10334000009BCBB903B0BDE8F08F23263FE74FF0D9
:10335000230BD9457FF461AF0C4A12785A45A1D1AD
:1033600002F014FA064B1B780193064B93F800B059
:1033700098E7C8F814B07BE7024B83F800B0E1E7A8
:10338000EC070020ED0700209C000020EE07002045
:103390000023012070B4094A09490A4E0A4D0B4C1A
:1033A000136053609360D36013615361936108703D
:1033B00033702B70237070BC704700BFF007002083
:1033C000EF070020EE070020EC070020ED070020AB
:1033D00009490A4B0A781B7893420CD0531CDBB284
:1033E000242B08BF002310B405480B7004789442C6
:1033F00008BF037010BC7047EE070020EC070020E8
:10340000ED0700203420034A034B127800FB023002
:10341000704700BFEC0700209C000020054B064AC7
:103420001B7812789A421DBF3422044802FB030025
:1034300000207047EE070020EC0700209C000020D1
:10344000094B0A4A1B7812780133DBB2242B08BFE0
:1034500000239A4205D03421054A01FB0323586911
:1034600070470020704700BFEE070020EC070020E7
:103470009C000020044A054B10781B78C01AB0FA53
:1034800080F04009704700BFEE070020EF070020E2
:1034900038B5837CC46ADA0715D5174B587AFEF71E
:1034A000A9FE1649FEF7FAFE01462046FEF7F6FE93
:1034B00004464FF07E512046FFF7ACF808B94FF0B4
:1034C0007E54204638BD5B0705460BD40A4B187A5C
:1034D000FEF790FE0949FEF7E1FE01462046FEF7A1
:1034E000DDFE0446AD6A20462946FFF793F8002822
:1034F000DFD02C46DDE700BFC40A00200AD7233CFA
:103500002DE9F04F354A364B127885B03549019296
:103510001A7A5B7A0C7803920293334FDFF8D4A0C7
:103520004FF034094FF07E5B28E00298FEF762FE10
:103530002E49FEF7B3FE4146FEF7B0FE054659465A
:103540002846FFF767F800B95D4629463846D6F8A1
:103550002480FFF741F8002835D039463846FEF779
:103560009DFE074641463846FFF754F840BBB76119
:103570000134E4B2242C08BF00242F46019B9C4256
:1035800027D009FB04A6B37CD6F82C80DA07CCD46C
:103590005B070AD40398FEF72DFE1449FEF77EFE62
:1035A00001464046FEF77AFE804609FB04A39D6A69
:1035B00041462846FFF710F80028C0D14546BEE72F
:1035C000C6F81880D4E729462846FEF767FE074666
:1035D000C8E7074B9F6105B0BDE8F08FEC070020FE
:1035E000C40A0020EE070020FFFF7F7F0AD7233C9C
:1035F000F00700209C00002034222DE9F04FA84B5A
:1036000083461B78A74891B0019302FB03030D4644
:103610001C460391184600210293FCF723FE2B7AE7
:103620006A68A3749B074CBF9F4BA04B226393E82F
:103630000700019B0DF11C0888E8070034261A4694
:103640000025984B029F06FB0236DFF88892ABF10B
:10365000040BCA465BF8040F59F8041BFEF71EFE64
:10366000FCF714FF58F8253004AA42F82500C01AC8
:1036700080EAE074A4EBE07447F8044BF3689C42E2
:1036800038BF1C46F460FEF7B5FDDAF80010FEF70F
:10369000B9FE0AAB002143F82500FEF79DFF38B9BB
:1036A0000135032DD5D154B9204611B0BDE8F08FB6
:1036B0007F4B328A33F8153013433382F0E70AA880
:1036C00004F068FC019B34241A46764B0AA904FBDB
:1036D00002342062774804F0A9FC0AA9E061764828
:1036E00004F0A4FCA57CA062EF0776D5E062734BE2
:1036F0006B4A1B7812789A4201D0AC0776D5019AB2
:1037000034231146674A03FB012300225A615A629F
:10371000019A34231146634A03FB01239A7C9007E4
:1037200000F1B180D107DC6A00F1A08053070BD40F
:10373000634B187AFEF75EFD6249FEF7AFFD014666
:103740002046FEF7ABFD0446019A34231146554A44
:1037500003FB01239D6A21462846FEF73DFF00B189
:103760002C464FF07E512046FEF754FF08B94FF02B
:103770007E544E4D029BAF69214638465E6AFEF785
:103780002BFF002800F0858039463846FEF786FD7D
:10379000074631463846FEF73DFF029B002876D1AA
:1037A0009F61494A3E481178484E4B1CDBB2242B9E
:1037B00008BF002313700AAB017093E8070004AB45
:1037C000AC6186E8070093E8070085E80700FFF78B
:1037D000F3FC012011B0BDE8F08F039B2E071968A0
:1037E000E16284D5206AFEF759FD7FE72F4C0A9EDF
:1037F000E76830463946FEF751FD01460020FEF7E6
:1038000043FC394605463046FEF73EFC27690B9ED1
:103810000D9039463046FEF741FD01462846FEF739
:1038200033FC394605463046FEF72EFC66690C9C93
:103830000E9021463046FEF731FD01462846FEF740
:1038400023FC314605462046FEF71EFC20490F901A
:103850002846FEF7DFFE00283ED0019A34231146A9
:10386000104A03FB012300225A6251E7144B587A95
:10387000FEF7C0FC1349FEF711FD01462046FEF796
:103880000DFD04466DE7012011B0BDE8F08F9E618B
:1038900087E721462046FEF701FD074679E700BF8E
:1038A000EC0700209C000020E80A0020F007002020
:1038B00050B100087C0A0020700A0020EE070020AA
:1038C000C40A00200AD7233CEF070020FC07002091
:1038D000EFFF7F3F640A002021492846FEF77CFE67
:1038E00040B1019A342311461E4A03FB01231E4AAC
:1038F0005A620DE70DA804F04DFB0DA91B4804F01A
:1039000095FB294606464FF07E50FEF7BDFB4FF073
:103910007C51FEF7C3FCFCF737FE0446144B3046DF
:10392000996BFEF7BBFC2146FEF7B8FC2146054625
:103930004FF07E50FEF7A8FB01462846FEF762FDD9
:1039400000210446FEF748FE38B9019A3423114697
:10395000044A03FB01235C62DAE60024F5E700BFBA
:10396000EFFF7FBF9C000020FFFF7F7F7C0A0020CD
:10397000640A0020024A034B07CA83E80700704725
:10398000E80A0020F0070020064A074B12781B784F
:103990009A422CBF03F1230003F1FF30801AC0B21A
:1039A000704700BFEC070020EE07002008B501F0CB
:1039B000EDFE044A044B12781A70BDE80840FFF788
:1039C000FBBB00BFEE070020ED07002008B500217B
:1039D00044220748FCF746FC0649002004F058FC46
:1039E00000B108BD0720BDE8084004F06BBE00BF71
:1039F000E0090020080A00200149024806F044BA04
:103A0000E80A0020FC0900202DE9F04F0646DFF807
:103A10009882402200219DB04046FCF723FC9F4B3A
:103A200003CB1C889A78C8F80100C8F80510A8F8DC
:103A3000094088F80B203378242B00F01E811023D6
:103A400000220C9304230A920B930027B45C8DF898
:103A500053203D46099707970897DFF85092002CAE
:103A600000F0E980A4F14103192B00F29F82531C5E
:103A70000DF1530115AA30468DF8533004F0A8F922
:103A8000002800F09882DDF854B05846FCF768FD35
:103A9000FEF706FE5FFA80FA5046FEF7ABFB0146E2
:103AA0005846FEF7F1FA4946FEF7F8FBFCF7EEFC44
:103AB000472C82B228D04D2C40F08B80002A40F059
:103AC000C082BAF11E0F00F208810123744A03FA82
:103AD0000AF3134240F0988013F4607F40F0BD80F9
:103AE00013F0380F00F0F980BAF1040F00F089826A
:103AF000BAF1050F00F07E82BAF1030F00F0FE81EB
:103B00004FF480520C238AE0BAF15E0F00F2E58098
:103B1000DFE81AF0CE00CE00CE00CE004C01E3006C
:103B2000E300E300E300E3003801E300E300E30027
:103B3000E300E300E3001501150115013201320134
:103B4000E300E300E300E300E300E3003801E30007
:103B50003801E300E300E300E300E300E300E300F7
:103B6000CE00E300EF00E300E3001B01E300E3000D
:103B7000E300E300E3001B01E300E300E3004C018A
:103B80002C012C012C012C012C012C01E300FD0047
:103B9000E300E300E300E300E300E300E300E3000D
:103BA000E300E300E300E300E300E300E300E300FD
:103BB000E300E3000101E300E300E300E300E300CE
:103BC000E300E300E300E3000601060138010F0112
:103BD0000F01463C142C00F28080DFE814F02D0128
:103BE0007E007E0019012301F7003E017E004301A3
:103BF0007E004B017E00510157015E017E007E0078
:103C00007E006B0176010601BAF1000F6AD0BAF1AD
:103C1000010F3FD04FF400620B2388F808A045FA4B
:103C200003F3D80700F1078215439DF85320B45CD5
:103C3000002C7FF417AF079B23B1089B002B08BF14
:103C400002230893B90640F16B81164BD8F8202067
:103C50009A4240F365811B2340E0BAF1080F00F05F
:103C60003F81BAF1090F00F0AB81BAF1070F00F004
:103C70003E814FF400520D23D1E7012388F8013033
:103C80000A93112300220C93052388F802200B933A
:103C90000322DAE64FF400620B23C0E7E0090020BC
:103CA0000700004080969800240A00200000C842C7
:103CB000089B002B40F0D682BAF1260F88F801A0AD
:103CC00040F0BB81A2F114039BB21E2B05D8C4495E
:103CD00021FA03F3DB0700F11881142318461DB005
:103CE000BDE8F08F03234FF4006288F808300B23FF
:103CF00095E70721002A40F0A48145FA01F3DC078B
:103D000000F1998101238B401D43ADB28DE7002A5C
:103D1000E3D10A21F1E75023012188F80130E9E7D6
:103D2000002A40F07F81AAF15A0A88F804A00321F2
:103D3000E3E7CAF15E0A88F802A00521DAE7AAF1F2
:103D4000110A88F805A00221D4E7089B002B40F057
:103D50008982BAF1310F00F07D810A2ABDD1012399
:103D600088F80630032308210893C6E7AAF1360A2B
:103D700088F807A00921BDE7CAF1150A88F803A051
:103D80000621B7E7002A40F04381089B002B40F052
:103D90006982BAF11C0F88F800A000F05881BAF1CE
:103DA0001E0F00F054810123089309E0BAF11C0FA3
:103DB00088F800A000F00B81BAF11E0F00F0078117
:103DC000BAF15C0F00F00381002193E7159B0824F2
:103DD000C8F818300323099A42F00402099247FAFE
:103DE00003F3DB070FD427431FE7159B079AC8F897
:103DF0003C300C2347FA03F342F00402DB0707923E
:103E00004FF48054EFD5192318461DB0BDE8F08F4C
:103E1000099A159B42F00102C8F810300992022459
:103E20000123DCE7099A159B42F00202C8F814301E
:103E3000099204240223D2E7159B0124C8F80C3010
:103E4000002347FA03F3DA07DDD400211598FEF7C3
:103E5000C3FB0028C7D0042340E788F81CA0102427
:103E60000423BCE71598FEF7F5FB2024C8F82000D2
:103E70000523E6E7159B4024C8F824300623E0E735
:103E8000159B8024C8F828300723A8E7159B4FF41A
:103E90008074C8F82C300823D3E752491598FEF7F0
:103EA000B9FB002840F0E48188F830A04FF400749A
:103EB0000923C6E7079A159B42F00102C8F834307F
:103EC00007924FF480640A2389E7079A159B42F012
:103ED0000202C8F8383007924FF400640B237EE7E3
:103EE00040234FF4005288F809300D2397E68023D1
:103EF0004FF4005288F809300D2390E610234FF458
:103F0000805288F80A300C2389E6374B0121A3FB45
:103F10000223DB08763B88F8013002230893ECE6A5
:103F20000A9B002B40F08F8098F80230012B00F0A4
:103F300001812E4B5B7833B9FE0700F1AC802B4B2F
:103F40001B69C8F80C30FC0503D4284BDB68C8F8A3
:103F50002C3098F80090B9F1040F00F0BB8098F86D
:103F60000530002B00F0AD80012B40F0A180002433
:103F700002261193052310940F960E9398F80330A0
:103F8000012B00F0AC80089B032B00F0C880DFF809
:103F900060A016AB9AE8070083E80700A9056DD575
:103FA00098F8070006285DD91D2397E601231846D7
:103FB0001DB0BDE8F08F022318461DB0BDE8F08F9C
:103FC00000234FF4005288F809300D2327E612B180
:103FD0000A2A7FF482AE504488F8000000218CE663
:103FE0000104104000007F43CDCCCCCCE009002080
:103FF000080A002000234FF4805288F80A300C236E
:104000000DE620234FF4805288F80A300C2306E690
:10401000BAF11C0F88F800A0DAD0BAF11E0F7FF4B5
:10402000CFAED5E70A2A7FF458AEBAF15A0F3FF463
:1040300054AE042161E6152350E6022301210893C2
:1040400058E617234AE6FA0725D4162346E6012345
:104050000893C0E79DF82030082188F80630032334
:1040600008934AE6AE4B9B79834207D016A904F029
:104070000FF9002800F0F48098F80090B9F10A0FC9
:1040800000F0C280B9F15C0F64D1079B002B40F0B7
:104090000F811A2322E698F80330012B7FF453AFE7
:1040A000D8F80C009F49FEF7F9F8C8F80C004AE769
:1040B0000623022401260E93002310940F961193D9
:1040C0005CE71E460F93032301240E9302231094F2
:1040D000119353E7780600F1C7801C23FEE5079B88
:1040E000D90707D5D8F834008E49FEF7D7F8079BD3
:1040F000C8F834009A0707D5D8F838008949FEF780
:10410000CDF8079BC8F8380058077FF53CAFD8F8C2
:104110003C008449FEF7C2F8C8F83C0033E798F841
:104120000630012B7FF433AF079B042B3FF42FAFF6
:104130002523D3E5089B022B7FF405AF98F80130C7
:10414000502B3FF400AF002B3FF4FDAEFB077FF593
:104150007CAFF8E6089B032B2FD0079B6BB398F836
:104160000430002B00F0E480B9F1350F079B00F01C
:104170008480DA0740F18381694BD8F83410D8691C
:10418000FDF784FFC8F83400079B9B0740F172815C
:10419000634BD8F83810186AFDF778FFC8F8380074
:1041A000079B13F0040F5E4B00F0F780D8F83C003B
:1041B000596AFDF76BFFC8F83C00B9F11E0F00F01B
:1041C000F080B9F1350F6CD0B9F11C0F00F05C81B3
:1041D00098F80190B9F1500F00F02E8100230D9353
:1041E000089B022B00F003810A9A002A42D027F094
:1041F0002107BFB2089B13B127F4E057BFB2002FCD
:1042000000F04A81242369E5079B002B3FF441AF6E
:1042100017F0500F3FF461AFD8F82400FCF7A0F975
:10422000FEF73EFAC0B206283FF6BEAE98F81C3044
:10423000142B05D0022B7FF450AD3A063FF54DAD5F
:1042400027F05007BFB2002800F0A1840138C3B2A4
:104250000D9335490D9804F01BF8002840F02D848B
:1042600007233BE5182339E527F04007BFB276E680
:10427000262333E52D4B1F40BCE7D80704D4284B39
:10428000DB69C8F83430079B990704D4244B1B6AB8
:10429000C8F83830079B5A0703D4214B5B6AC8F82B
:1042A0003C3098F80190B9F1010F97D91E2315E51C
:1042B000D80700F190801A4B5B6BC8F83430079B2D
:1042C00099077CD4164B9B6BC8F83830079BC3F317
:1042D0008003C3B1124B1899586AFDF7D5FED8F880
:1042E0003C10FDF7D1FE0E4B196CFDF7CDFE0023FF
:1042F00098F801900D93C8F83C00B9F1500F7FF485
:104300006FAF1F23EAE4064A0D93D26BC8F83C2036
:1043100098F80190B9F1500F7FF462AFF1E700BF58
:10432000E00900203333CB41340A0020DEFCFFFFDC
:10433000B9F1350F079BA0D0DB0740F1BD80614B81
:104340001699586BFDF7A2FED8F83410FDF79EFEC3
:10435000C8F83400079B980740F1A980594B17997A
:10436000986BFDF793FED8F83810FDF78FFEC8F86C
:104370003800079B13F0040F524B0ED0D96B1898DE
:10438000FDF784FED8F83C10FDF780FE4D4B196C0C
:10439000FDF77CFEC8F83C000FE75B6AC8F83C30CC
:1043A0000BE74949072003F073FF00283FF458AF9B
:1043B000079B002B47D10A9A0D93089315E7414BB1
:1043C0001799186AFDF760FED8F83810FDF75CFE03
:1043D000C8F838007AE73B4B1699D869FDF754FEC8
:1043E000D8F83410FDF750FEC8F8340067E7B9F18B
:1043F000000F19D00021D8F80C00FEF7E3F80028D0
:104400007FF423AEB9F18C0F00F0698200F25D8277
:10441000B9F1020F00F02A82B9F1030F00F02882EF
:10442000B9F1010F7FF4E0AE079B0A9A002B089BBD
:1044300008BF00230893D8E6079B002B7FF461AFE9
:104440000A9A0D93D1E6D90704D41E4BDB69C8F84C
:104450001030079B9A0704D41A4B1B6AC8F8143013
:10446000079B5B0703D4174B5B6AC8F8183000231F
:104470000D934DE7134B1B6AC8F8383090E6114B8B
:10448000DB69C8F834307FE60F49062003F000FFEF
:1044900000283FF4E5AE8BE719971A971B97AAB14E
:1044A00025F04905002D00F04183102316E4054B4B
:1044B0001B6AC8F838305CE7024BDB69C8F8343057
:1044C00048E700BFE0090020340A0020B44B93F80D
:1044D00048309C0714D598F80130013B022B04D9D1
:1044E0000A9B43F04003DBB20A93079B1BB1089B76
:1044F000022B00F0B381AB4B5B7A102B00F03583BD
:104500000A9B03F04004A749D8F8202098F802300D
:104510008A614B7013B108238DF86C30A14BD8F829
:104520002C50DE689F4AD8F80C303046294613617B
:104530001993FEF747F8002800F0A7800A9B980619
:1045400000F1A3803546974B587A04B91A9598F82C
:104550000A3098F83020934983420A7507D01846EC
:104560001A9905F0AFF998F80A308E4A53728D4ABD
:104570009DF86C30527A98F809001343894A8DF8F7
:104580006C30127A824209D005F088FD98F8093023
:10459000844A13B1127A1343824A1372814A9DF8F6
:1045A0006C30117A98F800200B43042A8DF86C3097
:1045B00000F0478198F803307A4998F805208B700D
:1045C000089B0A71032B00F02681764A98F8073081
:1045D00092799A4207D016AA724C07CA8AE8070055
:1045E000A37105F047FC98F8003098F804206D4955
:1045F000262BCA7000F095807BD95C2B71D0662B7E
:1046000065D0282B5ED098F80130664A502B137085
:1046100003D0089A022A00F0898098F80830614A8D
:10462000D371002B3FF45AAB03F0E6F85D4BDB7916
:10463000032B3DD00121002464225A485A4B0170BB
:10464000197804710229C470447084714472047230
:104650001A725A729A7210D000F12801204603F0A3
:1046600017FE00283FF4FCAD05F004FC20460021B5
:1046700005F09AF8204605F0EDFC082004F050F80B
:104680000023484AD371FFF729BB464B587A60B1E3
:104690000A9B190609D4002C00F0D880002105F0EF
:1046A00011F9404BD8F82C50587A3E4BDD604CE75E
:1046B0003D4B1B78022BE3D0082005F031FC02F0C3
:1046C000A9FEDDE73949072003F006FD9BE700233B
:1046D000374AA2F134014B635360936005F0CAFB83
:1046E00091E7334B334A07CA83E8070005F0C2FB62
:1046F00089E71C2B34D01E2B32D00A2B83D10D9D81
:104700002D4C2846214603F0E7FC264B9B79AB4213
:104710007FF479AF94E807008AE8070005F0AAFB68
:1047200071E72249062003F0D7FC6CE7012B6BD020
:10473000002B5CD0023B012B42D99DF86C301D4D03
:1047400043F004030A9A19A928468DF86C3002F048
:1047500073F8E0B9154C95E8070084E807005CE7BA
:104760009DF86C3043F001038DF86C30089B1BB151
:1047700019A9104801F0FEFD0F4D0C4C284619A94F
:1047800001F0F8FD95E8070084E807003BE7012801
:104790007FF443AF0949054805F076FB3DE700BFCC
:1047A000640A0020E0090020C40A0020FC0900205F
:1047B000140A0020580A0020340A0020E80A0020C9
:1047C0000A9B984DC3F380030493119B964C03936B
:1047D000109BD8F8286002930F9B19A901932246D9
:1047E000A5F124032846009601F0FAFDB3E79DF8F1
:1047F0006C308C4D43F0010319A928468DF86C30BC
:10480000894C01F0B7FDA6E7864D19A9284601F0AD
:10481000B1FD854C9FE798F806304B7113B9002322
:10482000C8F83C30D8F83C40804B2146186CFDF766
:10483000C9FE00287FF4C9AE7C4B1C6405F01AFB4E
:10484000C3E6D8F8240001F0C3FFB3E6294605F01B
:1048500039F8764BD8F82C50587A26E70A9B63F043
:104860007F03DBB20A9303F040044CE60B9B0A93F0
:10487000079B002B3FF40DAC0E9A134202D120236C
:10488000FFF72CBA694B08EB860203EB8603D96964
:10489000506BFDF7F9FB654B08EB840203EB8403D7
:1048A0000B90D969506BFDF7EFFB17F08003814641
:1048B00062D027F080070C225A495B48BFB2FBF751
:1048C000A1FC28BB2123FFF709BAB9F18E0F06D04E
:1048D00003D3B9F18F0F7FF487AC0C9B0A9309F1D6
:1048E0007203DBB2012B04D80A9B43F00803DBB24E
:1048F0000A93079B002B3FF4CCAB0C2249494A4852
:10490000FBF780FC0028DDD00A9B03F001026CE479
:1049100098F80330012B06D1D8F828004449FDF758
:10492000BDFCC8F82800D8F828304FF0814118465F
:104930000993FDF7B3FC099B1946FDF7AFFC0990FD
:104940000B980146FDF7AAFC099B01461846FDF7A6
:104950009BFB494609904846FDF7A0FC099B014690
:104960001846FDF791FB00210990FDF735FE099BE4
:1049700048B12223FFF7B2B9099A0E990A4259D1D8
:104980002323FFF7ABB91846FBF7FEFD4946099014
:104990000B9803F0EDFA099B014603F1004318461A
:1049A000FDF730FD034698F801200021032AD8F8CE
:1049B000282008BF00F1004310460C930992FDF730
:1049C0000BFE099A0C9B28B102F1004203F100434F
:1049D000C8F82820184649460993FDF75FFCDDF822
:1049E0002CB001465846FDF74FFB4FF07C51FDF7C8
:1049F00055FC0236099B08EB8606B06059461846FE
:104A0000FDF74CFC4946FDF741FB4FF07C51FDF7AB
:104A100045FC02340A9B08EB840403F00102A06009
:104A2000FFF7E3BB580A0020FC090020E009002042
:104A30003333CB4198F8032027F00E07012ABFB289
:104A400000F0AA80023408EB8404A1684846FDF710
:104A50001BFB8146023608EB8606B1680B98FDF712
:104A600013FB494603F084FAA1688146B06803F05D
:104A70007FFA064648463146C8F82860FDF704FB31
:104A800020F0004420465349FDF7C4FD00283FF4C0
:104A90003BAF4FF07C512046FDF7BCFD00287FF472
:104AA00011AF4D493046FDF7F9FB01462046FDF7B1
:104AB000B1FD00287FF406AF26E7002398F81C20FC
:104AC00012941392454A9B461446DFF82091079BA7
:104AD00043FA0BF3DB0706D5139B142B0ED0D9F842
:104AE0002430C9F800300BF1010BBBF1030F09F1C1
:104AF000040904F10404EAD1129C09E4A1692068C4
:104B0000FDF7C2FAD9F82410FDF7BEFABBF1020F87
:104B1000C9F80000E7D1324B129C196CFDF7B4FACA
:104B200098F80190C8F81800FFF7E7BB98F8003034
:104B3000352B02D0002B7FF4B8AC294A284B117AD0
:104B40005B7AD2680B4319A826498DF86C301A920B
:104B500004F0F8FC034600287FF4C0A8224A1F4C4A
:104B600007CA84E80700FFF7B9B81D4B0A9A1B78FB
:104B7000013B022B134627D812F040043FF4C3AC8C
:104B800043F02003DBB20A9303F04004BBE498F83F
:104B900007300D93FFF75DBB144A0C9493461C46F7
:104BA000099B234113F0010F04F1010406D0DBF847
:104BB00000000F49FDF772FBCBF80000032C0BF14E
:104BC000040BEDD10C9C3DE712F040047FF49BAC4C
:104BD000D6E700BF0AD7A33B6F12833AFC09002037
:104BE000E0090020240A0020580A0020340A00208E
:104BF0003333CB4110B50446007828B105F0B8FB3B
:104C000014F8010F0028F9D110BD00BF632870B55A
:104C1000054620D91C48A0FB05304009303005F07E
:104C2000A7FB1A48A0FB0534E408E3B2A0FB03206D
:104C3000C00800EB8000A3EB40003030C0B205F0AC
:104C400097FB04EB8400A5EB40003030C0B2BDE818
:104C5000704005F08DBB092805D8BDE870403030A4
:104C6000C0B205F085BB0A26B0FBF6F404F13000B3
:104C7000C0B205F07DFB06FB1450BDE8704030303B
:104C8000C0B205F075BB00BF1F85EB51CDCCCCCCBD
:104C9000F0B50D4685B000210646FDF79DFC0028C5
:104CA00052D1012D56D92C462F4F30463946FDF7AB
:104CB000F5FA023CE4B2012C0646F6D805F00103F1
:104CC00023B130462949FDF7E9FA06464FF07C51F9
:104CD0003046FDF7DBF9FDF7BDFC00283CD0002293
:104CE000234EA6FB0013DB0803EB8301A0EB41007E
:104CF000541C04A930300A44E4B202F8100C2246D5
:104D00001846002BEDD1A54228D96A1E121BD2B23B
:104D100001320DEB04003021FBF7A4FA302204AB82
:104D20006C1C2B4403F8102CE4B25CB10DEB0406B0
:104D3000A54215D016F8010D013C05F019FB14F041
:104D4000FF04F5D105B0F0BD2D2005F011FB06F1F3
:104D50000046A6E72B46B3E70446D4E7E5D1DDE7F6
:104D60002E2005F005FBE5E70000C84200002041C9
:104D7000CDCCCCCC30B5714B85B093F84830DB0747
:104D800055D400210446FDF727FC002840F0AE80F2
:104D90006B492046FDF782FA6A49FDF77FFA4FF02A
:104DA0007C51FDF773F9FDF755FC002800F0A48055
:104DB0000021654D00E02146A5FB0023DB0803EB45
:104DC0008302A0EB420004AA30304C1C0A4402F8D3
:104DD000100CE4B21846002BEDD1022C16D830226C
:104DE0008B1C04A8DBB20444032B04F8102C07D05E
:104DF0000344FF2903F8102C02D130238DF8023030
:104E0000302304241D468DF8033005E0032CF7D031
:104E100004AB234413F8115C013CE4B2022C7ED0B5
:104E2000284605F0A5FA002CF2D105B030BD47495F
:104E3000FDF734FA00210446FDF7CEFB002861D1CE
:104E40003F492046FDF72AFA3D49FDF727FA4FF082
:104E50007C51FDF71BF9FDF7FDFB002858D0002120
:104E6000394D00E02146A5FB0023DB0803EB83025C
:104E7000A0EB420004AA30304C1C0A4402F8100C8B
:104E8000E4B21846002BEDD1032C1ED830228B1C27
:104E900004A8DBB20444042B04F8102C0FD0033117
:104EA000C9B20344042903F8102C08D0302304AA03
:104EB0000A44022902F8103C01D18DF80330302356
:104EC00005241D468DF8043005E0042CF7D004AB12
:104ED000234413F8115C013CE4B2032C26D028468D
:104EE00005F046FA002CF2D105B030BD2D2005F0BA
:104EF0003FFA04F100444BE730238DF800308DF881
:104F000001307AE72D2005F033FA04F1004497E7E9
:104F1000302302218DF800308DF80130C6E72E20B5
:104F200005F026FA284605F023FA71E72E2005F051
:104F30001FFA284605F01CFAC9E700BF640A0020E2
:104F40000000C84200002041CDCCCCCC8B42213D9A
:104F500070B54D4B84B093F84830DB0735D4002151
:104F60000446FDF739FB00287BD14FF07C512046E9
:104F7000FDF78CF8FDF76EFB00286DD00022434D45
:104F8000A5FB0013DB0803EB8301A0EB4100541CDD
:104F900004A930300A44E4B202F8100C2246184644
:104FA000002BEDD1002C57D004AB1A4412F8110C91
:104FB000013CE4B26D466C4401E014F8010D05F0CB
:104FC000D7F9AC42F9D104B070BD3149FDF766F9AB
:104FD00000210446FDF700FB002848D12D4920465A
:104FE000FDF75CF94FF07C51FDF750F8FDF732FB0F
:104FF000A0B10021254CA4FB0032D20802EB8203B1
:10500000A0EB430004AD4B1C30302944DBB201F867
:10501000100C19461046002AEDD173BB30238DF8D1
:1050200000303022022316468DF801205C1EE5B2C6
:105030006D4400E05C1E304605F09AF9E3B2012BA6
:1050400015F8016DF6D12E2005F092F9304604B026
:10505000BDE8704005F08CB9302001248DF80000C7
:10506000A6E72D2005F084F904F100447DE72D200A
:1050700005F07EF904F10044B0E7012BD1D02944BA
:1050800011F8116CD2E700BF640A0020CDCCCCCC63
:105090008B42213D00002041F8B5184D402195F884
:1050A000483017485B0726D4FEF730F801244FF646
:1050B000FE764FF08041134B13481A6895F8303054
:1050C000A0FB0202920C03FB02F31048104A3A3B89
:1050D000104D876A9BB22D889385948216827A88B8
:1050E000C381531E9BB28B858C820B8805829BB239
:1050F00023430B80F8BDFEF707F8D7E7640A0020CA
:10510000000801407C00002083DE1B43A008002033
:1051100000040040840900204FF08042002138B58F
:105120001388174C23F0010394F836001B04154D27
:105130001B0CFF281380918429700DD0124B1B7813
:10514000042B11D194F848305B0713D4BDE83840E4
:1051500040210E48FDF7DABF0D4B1B78002BEDD137
:10516000094B1B78802BEDD102F0F2FE94F8483009
:105170005A07EBD44021BDE838400448FDF7C4BFCE
:10518000640A00200C080020C40A00200008014026
:10519000F40A00204FF08042F8B5138ADC0779D575
:1051A00000234FF6FE71864D118293842B78002BDD
:1051B00070D1844C4FF6FC77638A0120DB4301F108
:1051C000804101F60201CE6803F0380326F038066C
:1051D00033437D4ECB603782CB68278A23F00703A9
:1051E0003B43CB603388A16A9BB203433380287072
:1051F00000296AD0754B1B78012B00F0A580002395
:10520000666A21686269F0681144814221602382E4
:1052100041D802226168A7693944884261600AD294
:10522000338A091A6160D906228248D56849134633
:105230004A68013A4A60A268E1690A449042A26061
:105240000FD2318A121A11F0200F6149A2608A68C8
:1052500043F004039BB214BF02F1FF3201322382F8
:105260008A605C4A1178042925D0228C013A92B2D6
:10527000228442B95849A2620A780132D2B20A2A7B
:1052800008BF00220A700021544A29701288534036
:105290002382F8BDF8BD01234D4F328A091A2160DF
:1052A000396812F0080F14BF01F1FF310131238278
:1052B00003223960AEE7D28813402382D5E7444900
:1052C00013464A6801324A60B5E7434B444E1878AA
:1052D000367886423BD018784249C0B2C700CE1912
:1052E0007388A662013B9BB2938531F8302094F815
:1052F00022303079228483424FD03B4B00EB800236
:1053000003EB8203DA6884F8220052086362A26029
:1053100062602260354A39441E8A1F6891F805E0B0
:10532000B2F800C05A689B68887927FA0EF786EAB7
:105330000C0122FA0EF223FA0EF367616182A26178
:10534000E36104F0E1F955E705F000FA57E7138847
:10535000274E23F0010396F836001B041B0CFF2890
:105360001380918429701AD01A4B1B78042B1ED0FD
:1053700002F0EEFD96F8483058071CD540211D4834
:10538000FDF7C4FE636A9B7C13B1002004F0BCF9F6
:10539000BDE8F840042004F0C3BD636ABAE7164BC9
:1053A0001B78002BE0D10B4B1B78802BE0D096F8BC
:1053B00048305B07E2D540210E48FDF7A5FEE1E746
:1053C0000C080020A008002000040040DA0A002099
:1053D000E80A0020C40A00209D080020840900205B
:1053E0009C0800204C080020CC0800200E0800205B
:1053F000640A002000080140F40A002010B40020D4
:105400004FF6FC740A490B4BCA681B8822F007024E
:1054100003F007031343084ACB60138823F001030A
:105420001B041B0C13801482908410BC704700BFB7
:1054300000080140840900200004004000211B4AAC
:10544000F0B4538E1A4F1B4E3980318013F0010196
:1054500018BF0121928E0C4612F001001ABF0825D8
:105460000120054613F0020F1CBF012144F0020485
:1054700012F0020F1CBF012045F010055B070AD592
:10548000520744F0040448BF012002D545F020052E
:1054900040B13C8003E0530706D40029F9D108B994
:1054A000F0BC70473580FBE70846EFE7640A002050
:1054B000840900200E0800204FF080420021F8B53A
:1054C0001388464C23F0010394F836001B04444D26
:1054D0001B0CFF281380918429704CD0414B1B7802
:1054E000042B50D194F848305B0752D440213E48F9
:1054F000FDF70CFE382200213C48FAF7B3FE2C22BF
:1055000000213B48FAF7AEFE0023012239483A4910
:105510003A4E0360DFF8F8E0608E394F0B7039497E
:105520002B703370AEF800303B8010EA02030A7033
:1055300008BF1A46A48E164614F001050EBF294670
:1055400008210125830744BF012246F00206A30774
:1055500044BF012541F0100140071FD5630746F005
:10556000040648BF012503D541F02001002D33D0AA
:10557000AEF8006016E0244B1B78002BAED1194B1F
:105580001B78802BAED102F0E3FC94F848305A0728
:10559000ACD440211448FDF7B7FDABE7640719D43C
:1055A000002AE5D1C5B9124B184A59821388D80789
:1055B000FCD44FF6FC730C481382C36801F0380129
:1055C00023F007033343C360C36823F03803194350
:1055D000C160F8BD1546C7E73980E4E7640A0020DA
:1055E0000C080020C40A0020000801401408002014
:1055F000A0080020100800209D0800209C08002022
:105600000E0800209E080020F40A0020000400403C
:10561000840900202DE9F041012186B00420FDF726
:10562000BDF840221026032306AD524F25F8142D55
:10563000294638468DF806308DF80760FDF7A6FB41
:1056400001210420FDF7AAF8072329463846ADF8C2
:105650000430FDF79BFB01210420FDF79FF8382360
:105660000024DFF8248129463846ADF80430FDF7E0
:105670008DFBD8F81C3003A943F00103C8F81C3097
:105680004FF08040ADF81040ADF80C40ADF812403E
:10569000ADF80E40FDF712FA01214FF08040FDF702
:1056A000E3FA01224FF080401146FDF7CBFA0121C9
:1056B0004FF08040FDF7A8FA4FF44070FDF7D8FA9C
:1056C0002D4B06AF47F8103D3846FDF7DBFAD8F80A
:1056D0001C302A4D43F00203C8F81C3003A92846A9
:1056E000ADF81040ADF80C40ADF81240ADF80E40EA
:1056F000FDF7E4F928460121FDF7B6FA0122284614
:105700001146FDF79FFA01212846FDF77DFA4FF477
:105710004070FDF7ADFA38464FF08047184B0293C2
:10572000FDF7B0FA4FF000504FF080513B88154A1A
:1057300023F00103B340F3403B803B8A23F0010395
:10574000B340F3403B82BC842B8823F00103B34079
:10575000F3402B802B8A23F00303B340F3402B82CA
:10576000AC8482F81D4382F81C631060116006B09F
:10577000BDE8F081000801401C0101010004004067
:105780001D01010100E100E00010024038B5084CA5
:1057900025685DB1074B5A78D96942F001025A7009
:1057A0000846FCF77BFD00236861236038BD00BF1D
:1057B0001008002014080020B34B1B79DA0700F111
:1057C0001B852DE9F04F91B0B04B1F78B04B1B7883
:1057D000BB4200F06E83AF4B1B680093002B00F0C0
:1057E00099831B6ADFF8D4A207939AF814300193C7
:1057F000A94B0E93A94BAA491B789AF800200B934A
:10580000DB000893CB181A71DAF810100798FCF730
:105810003BFC00210490FCF7DFFE002840F04C83A5
:10582000DAF82830DAF82C2002931846DAF820301B
:1058300011460D939AF8143003920593DAF8243048
:10584000DAF81C70DAF818800993FCF7BBFE002820
:1058500000F0FB824FF002030022924DDBB2CDF844
:105860003CA00692DDF81CB0914600242E460A9317
:10587000DDF834A00CE021463046FCF705FC41463B
:10588000054658464FF00109FCF7C4FE002852D0E7
:10589000019B012B00F00882C0F0C581032B00F0B2
:1058A0003C81009B2846D969FCF7F8FC39468146C3
:1058B000FCF792FE002800F02F824FF07C51484602
:1058C000FCF7ECFC01463846FCF7DEFB2946FCF70A
:1058D000E5FC01465846FCF7D7FB41460C90FCF727
:1058E00099FE002800F0188238464946FCF7CCFBA8
:1058F0000746DDF830B029462046FCF7C7FB3146A5
:105900000446FCF769FE0028B5D14FF0010959465D
:105910000498FCF761FE70B130466249FCF7B6FBB3
:1059200021460646FCF7B0FB414605465846FCF7C3
:1059300071FE0028ACD1DDF83CA0B9F1000F40F0B9
:105940003282069B002B40F0F4840E9B1B689B7CEC
:10595000002B40F065824C4B93F8048018F0080F40
:1059600040F0AD829AF83400089A4D4BDAF80C10EA
:10597000134498715846FCF791FC0646FAF7C0FCB0
:105980000546DAF80800FAF7BBFC29460746FCF79B
:105990007BFBFCF785FE424B0B9A1FFA80F923F83C
:1059A0003290B9F1000F03D118F0020F40F06A8471
:1059B0002046DAF80410FCF769FB31460446384605
:1059C000FCF762FB01462046FCF71CFD0446364A04
:1059D000364B17683648A3FB07239B0C00FB03F0EC
:1059E000FCF704FC2146FCF759FC3249FCF756FC55
:1059F000FAF786FCFCF754FE2F4BA3FB0737B0EBFE
:105A0000572F80F0258200220899254B0B445A71AC
:105A10000A464FF6FF73984228BF18461B4B204991
:105A20001B780A445F1CFFB250801C4A0A2F137077
:105A300000F01F82174B154A1B6817703146C3F8D8
:105A400020B0CAF808502846FCF71EFB2146FCF798
:105A500025FCDAF81810CAF804005846FCF7B2FD25
:105A600000283FF4B3AE58460021FCF7D3FD0028D0
:105A700040F0088418F0040340F00484054A1360E1
:105A8000FDF7A6FCA0E600BFC40A00209E08002087
:105A90009D08002010080020800900209C0800209C
:105AA0004C0800203EC32E397C00002083DE1B43BF
:105AB00040420F0000007042D34D621014080020D5
:105AC0004FF07C514846FCF7E9FB01463846FCF7AD
:105AD000DBFA2946FCF7E2FB01465846FCF7D4FA0C
